{
  "contractName": "Charity",
  "abi": [
    {
      "constant": true,
      "inputs": [],
      "name": "name",
      "outputs": [
        {
          "name": "",
          "type": "string"
        }
      ],
      "payable": false,
      "stateMutability": "view",
      "type": "function",
      "signature": "0x06fdde03"
    },
    {
      "constant": true,
      "inputs": [
        {
          "name": "",
          "type": "uint256"
        }
      ],
      "name": "campaigns",
      "outputs": [
        {
          "name": "id",
          "type": "uint256"
        },
        {
          "name": "name",
          "type": "string"
        },
        {
          "name": "owner",
          "type": "address"
        },
        {
          "name": "target",
          "type": "uint256"
        },
        {
          "name": "minAmount",
          "type": "uint256"
        },
        {
          "name": "description",
          "type": "string"
        },
        {
          "name": "img",
          "type": "string"
        },
        {
          "name": "balance",
          "type": "uint256"
        },
        {
          "name": "createAt",
          "type": "uint256"
        },
        {
          "name": "endAt",
          "type": "uint256"
        }
      ],
      "payable": false,
      "stateMutability": "view",
      "type": "function",
      "signature": "0x141961bc"
    },
    {
      "constant": true,
      "inputs": [
        {
          "name": "",
          "type": "uint256"
        }
      ],
      "name": "contributions",
      "outputs": [
        {
          "name": "id",
          "type": "uint256"
        },
        {
          "name": "owner",
          "type": "address"
        },
        {
          "name": "campaignId",
          "type": "uint256"
        },
        {
          "name": "amount",
          "type": "uint256"
        },
        {
          "name": "createAt",
          "type": "uint256"
        }
      ],
      "payable": false,
      "stateMutability": "view",
      "type": "function",
      "signature": "0x1cee0700"
    },
    {
      "constant": true,
      "inputs": [],
      "name": "contributionCount",
      "outputs": [
        {
          "name": "",
          "type": "uint256"
        }
      ],
      "payable": false,
      "stateMutability": "view",
      "type": "function",
      "signature": "0x5b18056b"
    },
    {
      "constant": true,
      "inputs": [
        {
          "name": "",
          "type": "uint256"
        }
      ],
      "name": "withdrawals",
      "outputs": [
        {
          "name": "id",
          "type": "uint256"
        },
        {
          "name": "campaignId",
          "type": "uint256"
        },
        {
          "name": "amount",
          "type": "uint256"
        },
        {
          "name": "description",
          "type": "string"
        },
        {
          "name": "approveCount",
          "type": "uint256"
        },
        {
          "name": "isApprove",
          "type": "bool"
        },
        {
          "name": "createAt",
          "type": "uint256"
        },
        {
          "name": "isWithdraw",
          "type": "bool"
        }
      ],
      "payable": false,
      "stateMutability": "view",
      "type": "function",
      "signature": "0x5cc07076"
    },
    {
      "constant": true,
      "inputs": [],
      "name": "withdrawalCount",
      "outputs": [
        {
          "name": "",
          "type": "uint256"
        }
      ],
      "payable": false,
      "stateMutability": "view",
      "type": "function",
      "signature": "0x71706cbe"
    },
    {
      "constant": true,
      "inputs": [],
      "name": "campaignCount",
      "outputs": [
        {
          "name": "",
          "type": "uint256"
        }
      ],
      "payable": false,
      "stateMutability": "view",
      "type": "function",
      "signature": "0x7274e30d"
    },
    {
      "inputs": [],
      "payable": false,
      "stateMutability": "nonpayable",
      "type": "constructor",
      "signature": "constructor"
    },
    {
      "anonymous": false,
      "inputs": [
        {
          "indexed": false,
          "name": "id",
          "type": "uint256"
        },
        {
          "indexed": false,
          "name": "name",
          "type": "string"
        },
        {
          "indexed": false,
          "name": "owner",
          "type": "address"
        },
        {
          "indexed": false,
          "name": "target",
          "type": "uint256"
        },
        {
          "indexed": false,
          "name": "minAmount",
          "type": "uint256"
        },
        {
          "indexed": false,
          "name": "description",
          "type": "string"
        },
        {
          "indexed": false,
          "name": "img",
          "type": "string"
        },
        {
          "indexed": false,
          "name": "balance",
          "type": "uint256"
        },
        {
          "indexed": false,
          "name": "createAt",
          "type": "uint256"
        },
        {
          "indexed": false,
          "name": "endAt",
          "type": "uint256"
        }
      ],
      "name": "CampaignCreated",
      "type": "event",
      "signature": "0x89a246b6f7dfff7aeef3c6b9420d1789a53f23566dba4006e61ce6387c62ec0b"
    },
    {
      "constant": false,
      "inputs": [
        {
          "name": "_name",
          "type": "string"
        },
        {
          "name": "_target",
          "type": "uint256"
        },
        {
          "name": "_minAmount",
          "type": "uint256"
        },
        {
          "name": "_description",
          "type": "string"
        },
        {
          "name": "_img",
          "type": "string"
        },
        {
          "name": "_end",
          "type": "uint256"
        }
      ],
      "name": "createCampaign",
      "outputs": [],
      "payable": false,
      "stateMutability": "nonpayable",
      "type": "function",
      "signature": "0x4513b750"
    },
    {
      "constant": false,
      "inputs": [
        {
          "name": "_deloyer",
          "type": "address"
        },
        {
          "name": "_id",
          "type": "uint256"
        }
      ],
      "name": "donateCampaign",
      "outputs": [],
      "payable": true,
      "stateMutability": "payable",
      "type": "function",
      "signature": "0x3cdba326"
    },
    {
      "constant": false,
      "inputs": [
        {
          "name": "_id",
          "type": "uint256"
        },
        {
          "name": "_amount",
          "type": "uint256"
        },
        {
          "name": "_description",
          "type": "string"
        }
      ],
      "name": "createWithdrawal",
      "outputs": [],
      "payable": false,
      "stateMutability": "nonpayable",
      "type": "function",
      "signature": "0xa18ea36d"
    },
    {
      "constant": false,
      "inputs": [
        {
          "name": "_id",
          "type": "uint256"
        }
      ],
      "name": "approveWithdrawal",
      "outputs": [],
      "payable": false,
      "stateMutability": "nonpayable",
      "type": "function",
      "signature": "0x9eceddea"
    },
    {
      "constant": false,
      "inputs": [
        {
          "name": "_id",
          "type": "uint256"
        }
      ],
      "name": "getWithdrawal",
      "outputs": [],
      "payable": true,
      "stateMutability": "payable",
      "type": "function",
      "signature": "0x8a4fb16a"
    }
  ],
  "bytecode": "0x60806040526000600155600060025560006003553480156200002057600080fd5b506040805190810160405280601e81526020017f2743686172697479206f6e20776562203327206973206465706c6f7965640000815250600090805190602001906200006e92919062000075565b5062000124565b828054600181600116156101000203166002900490600052602060002090601f016020900481019282601f10620000b857805160ff1916838001178555620000e9565b82800160010185558215620000e9579182015b82811115620000e8578251825591602001919060010190620000cb565b5b509050620000f89190620000fc565b5090565b6200012191905b808211156200011d57600081600090555060010162000103565b5090565b90565b61175880620001346000396000f3fe6080604052600436106100ba576000357c0100000000000000000000000000000000000000000000000000000000900463ffffffff16806306fdde03146100bf578063141961bc1461014f5780631cee0700146103385780633cdba326146103cf5780634513b7501461041d5780635b18056b146106315780635cc070761461065c57806371706cbe146107495780637274e30d146107745780638a4fb16a1461079f5780639eceddea146107cd578063a18ea36d14610808575b600080fd5b3480156100cb57600080fd5b506100d46108e4565b6040518080602001828103825283818151815260200191508051906020019080838360005b838110156101145780820151818401526020810190506100f9565b50505050905090810190601f1680156101415780820380516001836020036101000a031916815260200191505b509250505060405180910390f35b34801561015b57600080fd5b506101886004803603602081101561017257600080fd5b8101908080359060200190929190505050610982565b604051808b8152602001806020018a73ffffffffffffffffffffffffffffffffffffffff1673ffffffffffffffffffffffffffffffffffffffff168152602001898152602001888152602001806020018060200187815260200186815260200185815260200184810384528d818151815260200191508051906020019080838360005b8381101561022657808201518184015260208101905061020b565b50505050905090810190601f1680156102535780820380516001836020036101000a031916815260200191505b50848103835289818151815260200191508051906020019080838360005b8381101561028c578082015181840152602081019050610271565b50505050905090810190601f1680156102b95780820380516001836020036101000a031916815260200191505b50848103825288818151815260200191508051906020019080838360005b838110156102f25780820151818401526020810190506102d7565b50505050905090810190601f16801561031f5780820380516001836020036101000a031916815260200191505b509d505050505050505050505050505060405180910390f35b34801561034457600080fd5b506103716004803603602081101561035b57600080fd5b8101908080359060200190929190505050610bbe565b604051808681526020018573ffffffffffffffffffffffffffffffffffffffff1673ffffffffffffffffffffffffffffffffffffffff1681526020018481526020018381526020018281526020019550505050505060405180910390f35b61041b600480360360408110156103e557600080fd5b81019080803573ffffffffffffffffffffffffffffffffffffffff16906020019092919080359060200190929190505050610c14565b005b34801561042957600080fd5b5061062f600480360360c081101561044057600080fd5b810190808035906020019064010000000081111561045d57600080fd5b82018360208201111561046f57600080fd5b8035906020019184600183028401116401000000008311171561049157600080fd5b91908080601f016020809104026020016040519081016040528093929190818152602001838380828437600081840152601f19601f82011690508083019250505050505050919291929080359060200190929190803590602001909291908035906020019064010000000081111561050857600080fd5b82018360208201111561051a57600080fd5b8035906020019184600183028401116401000000008311171561053c57600080fd5b91908080601f016020809104026020016040519081016040528093929190818152602001838380828437600081840152601f19601f8201169050808301925050505050505091929192908035906020019064010000000081111561059f57600080fd5b8201836020820111156105b157600080fd5b803590602001918460018302840111640100000000831117156105d357600080fd5b91908080601f016020809104026020016040519081016040528093929190818152602001838380828437600081840152601f19601f82011690508083019250505050505050919291929080359060200190929190505050610d97565b005b34801561063d57600080fd5b5061064661114d565b6040518082815260200191505060405180910390f35b34801561066857600080fd5b506106956004803603602081101561067f57600080fd5b8101908080359060200190929190505050611153565b60405180898152602001888152602001878152602001806020018681526020018515151515815260200184815260200183151515158152602001828103825287818151815260200191508051906020019080838360005b838110156107075780820151818401526020810190506106ec565b50505050905090810190601f1680156107345780820380516001836020036101000a031916815260200191505b50995050505050505050505060405180910390f35b34801561075557600080fd5b5061075e61124d565b6040518082815260200191505060405180910390f35b34801561078057600080fd5b50610789611253565b6040518082815260200191505060405180910390f35b6107cb600480360360208110156107b557600080fd5b8101908080359060200190929190505050611259565b005b3480156107d957600080fd5b50610806600480360360208110156107f057600080fd5b810190808035906020019092919050505061137e565b005b34801561081457600080fd5b506108e26004803603606081101561082b57600080fd5b8101908080359060200190929190803590602001909291908035906020019064010000000081111561085c57600080fd5b82018360208201111561086e57600080fd5b8035906020019184600183028401116401000000008311171561089057600080fd5b91908080601f016020809104026020016040519081016040528093929190818152602001838380828437600081840152601f19601f8201169050808301925050505050505091929192905050506114d1565b005b60008054600181600116156101000203166002900480601f01602080910402602001604051908101604052809291908181526020018280546001816001161561010002031660029004801561097a5780601f1061094f5761010080835404028352916020019161097a565b820191906000526020600020905b81548152906001019060200180831161095d57829003601f168201915b505050505081565b6004602052806000526040600020600091509050806000015490806001018054600181600116156101000203166002900480601f016020809104026020016040519081016040528092919081815260200182805460018160011615610100020316600290048015610a345780601f10610a0957610100808354040283529160200191610a34565b820191906000526020600020905b815481529060010190602001808311610a1757829003601f168201915b5050505050908060020160009054906101000a900473ffffffffffffffffffffffffffffffffffffffff1690806003015490806004015490806005018054600181600116156101000203166002900480601f016020809104026020016040519081016040528092919081815260200182805460018160011615610100020316600290048015610b045780601f10610ad957610100808354040283529160200191610b04565b820191906000526020600020905b815481529060010190602001808311610ae757829003601f168201915b505050505090806006018054600181600116156101000203166002900480601f016020809104026020016040519081016040528092919081815260200182805460018160011615610100020316600290048015610ba25780601f10610b7757610100808354040283529160200191610ba2565b820191906000526020600020905b815481529060010190602001808311610b8557829003601f168201915b505050505090806007015490806008015490806009015490508a565b60056020528060005260406000206000915090508060000154908060010160009054906101000a900473ffffffffffffffffffffffffffffffffffffffff16908060020154908060030154908060040154905085565b600060046000838152602001908152602001600020905060008160000154118015610c455750600154816000015411155b1515610c5057600080fd5b80600401543410151515610c6357600080fd5b60026000815480929190600101919050555060a06040519081016040528060025481526020013373ffffffffffffffffffffffffffffffffffffffff168152602001838152602001348152602001428152506005600060025481526020019081526020016000206000820151816000015560208201518160010160006101000a81548173ffffffffffffffffffffffffffffffffffffffff021916908373ffffffffffffffffffffffffffffffffffffffff1602179055506040820151816002015560608201518160030155608082015181600401559050503481600701540181600701819055508273ffffffffffffffffffffffffffffffffffffffff166108fc349081150290604051600060405180830381858888f19350505050158015610d91573d6000803e3d6000fd5b50505050565b60008651111515610da757600080fd5b600085111515610db657600080fd5b600084111515610dc557600080fd5b8484101515610dd357600080fd5b60008351111515610de357600080fd5b60008251111515610df357600080fd5b600081111515610e0257600080fd5b6001600081548092919060010191905055506101406040519081016040528060015481526020018781526020013373ffffffffffffffffffffffffffffffffffffffff1681526020018681526020018581526020018481526020018381526020016000815260200142815260200182815250600460006001548152602001908152602001600020600082015181600001556020820151816001019080519060200190610eaf929190611687565b5060408201518160020160006101000a81548173ffffffffffffffffffffffffffffffffffffffff021916908373ffffffffffffffffffffffffffffffffffffffff160217905550606082015181600301556080820151816004015560a0820151816005019080519060200190610f27929190611687565b5060c0820151816006019080519060200190610f44929190611687565b5060e08201518160070155610100820151816008015561012082015181600901559050507f89a246b6f7dfff7aeef3c6b9420d1789a53f23566dba4006e61ce6387c62ec0b6001548733888888886000428a604051808b8152602001806020018a73ffffffffffffffffffffffffffffffffffffffff1673ffffffffffffffffffffffffffffffffffffffff168152602001898152602001888152602001806020018060200187815260200186815260200185815260200184810384528d818151815260200191508051906020019080838360005b83811015611034578082015181840152602081019050611019565b50505050905090810190601f1680156110615780820380516001836020036101000a031916815260200191505b50848103835289818151815260200191508051906020019080838360005b8381101561109a57808201518184015260208101905061107f565b50505050905090810190601f1680156110c75780820380516001836020036101000a031916815260200191505b50848103825288818151815260200191508051906020019080838360005b838110156111005780820151818401526020810190506110e5565b50505050905090810190601f16801561112d5780820380516001836020036101000a031916815260200191505b509d505050505050505050505050505060405180910390a1505050505050565b60025481565b6006602052806000526040600020600091509050806000015490806001015490806002015490806003018054600181600116156101000203166002900480601f0160208091040260200160405190810160405280929190818152602001828054600181600116156101000203166002900480156112115780601f106111e657610100808354040283529160200191611211565b820191906000526020600020905b8154815290600101906020018083116111f457829003601f168201915b5050505050908060040154908060050160009054906101000a900460ff16908060060154908060070160009054906101000a900460ff16905088565b60035481565b60015481565b60008111151561126857600080fd5b6000600660008381526020019081526020016000209050600060046000836001015481526020019081526020016000209050600115158260050160009054906101000a900460ff1615151415156112be57600080fd5b600015158260070160009054906101000a900460ff1615151415156112e257600080fd5b60018260070160006101000a81548160ff0219169083151502179055508060020160009054906101000a900473ffffffffffffffffffffffffffffffffffffffff1673ffffffffffffffffffffffffffffffffffffffff166108fc349081150290604051600060405180830381858888f19350505050158015611369573d6000803e3d6000fd5b50348160070154038160070181905550505050565b60008111151561138d57600080fd5b6000600660008381526020019081526020016000209050600080905060008090506000600190505b600254811115156114675783600101546005600083815260200190815260200160002060020154141561145a5781806001019250503373ffffffffffffffffffffffffffffffffffffffff166005600083815260200190815260200160002060010160009054906101000a900473ffffffffffffffffffffffffffffffffffffffff1673ffffffffffffffffffffffffffffffffffffffff16141561145957600192505b5b80806001019150506113b5565b506001151582151514151561147b57600080fd5b8260040160008154809291906001019190505550600060028281151561149d57fe5b04905083600401548110156114ca5760018460050160006101000a81548160ff0219169083151502179055505b5050505050565b6000831115156114e057600080fd5b60006004600085815260200190815260200160002090503373ffffffffffffffffffffffffffffffffffffffff168160020160009054906101000a900473ffffffffffffffffffffffffffffffffffffffff1673ffffffffffffffffffffffffffffffffffffffff1614151561155557600080fd5b806007015483111580156115695750600083115b151561157457600080fd5b6000825111151561158457600080fd5b60036000815480929190600101919050555061010060405190810160405280600354815260200185815260200184815260200183815260200160008152602001600015158152602001428152602001600015158152506006600060035481526020019081526020016000206000820151816000015560208201518160010155604082015181600201556060820151816003019080519060200190611629929190611687565b506080820151816004015560a08201518160050160006101000a81548160ff02191690831515021790555060c0820151816006015560e08201518160070160006101000a81548160ff02191690831515021790555090505050505050565b828054600181600116156101000203166002900490600052602060002090601f016020900481019282601f106116c857805160ff19168380011785556116f6565b828001600101855582156116f6579182015b828111156116f55782518255916020019190600101906116da565b5b5090506117039190611707565b5090565b61172991905b8082111561172557600081600090555060010161170d565b5090565b9056fea165627a7a72305820f7d9942d293525647f25a29ea66a83080b2f359ddabbef8d2bd9bd70978700b40029",
  "source": "pragma solidity ^0.5.0;\r\n\r\ncontract Charity {\r\n    string public name;\r\n    uint public campaignCount = 0;\r\n    uint public contributionCount = 0;\r\n    uint public withdrawalCount = 0;\r\n    mapping(uint => Campaign) public campaigns;\r\n    mapping(uint => Contribution) public contributions;\r\n    mapping(uint => Withdrawal) public withdrawals;\r\n\r\n    struct Campaign {\r\n        uint id;\r\n        string name;\r\n        address payable owner;\r\n        uint target;\r\n        uint minAmount;\r\n        string description;\r\n        string img;\r\n        uint balance;\r\n        uint createAt;\r\n        uint endAt;\r\n    }\r\n\r\n    struct Contribution {\r\n        uint id;\r\n        address owner;\r\n        uint campaignId;\r\n        uint amount;\r\n        uint createAt;\r\n    }\r\n\r\n    struct Withdrawal {\r\n        uint id;\r\n        uint campaignId;\r\n        uint amount;\r\n        string description;\r\n        uint approveCount;\r\n        bool isApprove;\r\n        uint createAt;\r\n        bool isWithdraw;\r\n    }\r\n\r\n    event CampaignCreated(\r\n        uint id,\r\n        string name,\r\n        address payable owner,\r\n        uint target,\r\n        uint minAmount,\r\n        string description,\r\n        string img,\r\n        uint balance,\r\n        uint createAt,\r\n        uint endAt\r\n    );\r\n\r\n    constructor() public {\r\n        name = \"'Charity on web 3' is deployed\";\r\n    }\r\n\r\n    function createCampaign(string memory _name, uint _target, uint _minAmount, string memory _description, string memory _img, uint _end) public {\r\n        //require a valid name\r\n        require(bytes(_name).length > 0);\r\n        \r\n        //require a valid target\r\n        require(_target > 0);\r\n\r\n        //require a valid min amount\r\n        require(_minAmount > 0);\r\n        require(_minAmount < _target);\r\n\r\n        //require a valid description\r\n        require(bytes(_description).length > 0);\r\n\r\n        //require a valid img\r\n        require(bytes(_img).length > 0);\r\n\r\n        //require a valid end time\r\n        require(_end > 0);\r\n\r\n        //increment campaign count\r\n        campaignCount++;\r\n\r\n        //create campaignCount\r\n        campaigns[campaignCount] = Campaign(campaignCount, _name, msg.sender, _target, _minAmount, _description, _img, 0, now, _end);\r\n\r\n        //trigger an event\r\n        emit CampaignCreated(campaignCount, _name, msg.sender, _target, _minAmount, _description, _img, 0, now, _end);\r\n    }\r\n\r\n    function donateCampaign(address payable _deloyer, uint _id) public payable {\r\n        Campaign storage _campaign = campaigns[_id];\r\n\r\n        //make sure the campaign has a valid id\r\n        require(_campaign.id > 0 && _campaign.id <= campaignCount);\r\n\r\n        //make sure the msg.value >= minAmount\r\n        require(msg.value >= _campaign.minAmount);\r\n\r\n        //_campaign.contributorCount ++;\r\n        //_campaign.contributors[_campaign.contributorCount] = Contributor(_campaign.contributorCount, msg.sender, msg.value, now);\r\n        //add new contribution\r\n        contributionCount++;\r\n        contributions[contributionCount] = Contribution(contributionCount, msg.sender, _id, msg.value, now);\r\n\r\n        //increase balance\r\n        _campaign.balance = _campaign.balance + msg.value;\r\n        \r\n        //transfer coins\r\n        _deloyer.transfer(msg.value);\r\n    }\r\n\r\n    function createWithdrawal(uint _id, uint _amount, string memory _description) public {\r\n        //require id > 0\r\n        require(_id > 0);\r\n\r\n        Campaign storage _campaign = campaigns[_id];\r\n\r\n        //require owner = owner\r\n        require(_campaign.owner == msg.sender);\r\n\r\n        //require amount <= amount\r\n        require(_amount <= _campaign.balance && _amount > 0);\r\n\r\n        //require a valid description\r\n        require(bytes(_description).length > 0);\r\n\r\n        //increse withdrawalCount\r\n        withdrawalCount++;\r\n\r\n        //add withdrawal\r\n        withdrawals[withdrawalCount] = Withdrawal(withdrawalCount, _id, _amount, _description, 0, false, now, false);\r\n    }\r\n\r\n    function approveWithdrawal(uint _id) public {\r\n        //require id > 0\r\n        require(_id > 0);\r\n        Withdrawal storage withdrawal = withdrawals[_id];\r\n\r\n        //require sender is contributor\r\n        bool checkContributor = false;\r\n        uint campaignContributors = 0;\r\n        for(uint i = 1; i <= contributionCount; i++) {\r\n            if(contributions[i].campaignId == withdrawal.campaignId) {\r\n                campaignContributors++;\r\n                if(contributions[i].owner == msg.sender) {\r\n                    checkContributor = true;\r\n                }\r\n            }\r\n        }\r\n\r\n        require(checkContributor == true);\r\n\r\n        //increase approveCount\r\n        withdrawal.approveCount++;\r\n\r\n        //get half of contributors\r\n        uint halfContributors = campaignContributors / 2;\r\n\r\n        //update isApprove\r\n        if(halfContributors < withdrawal.approveCount) {\r\n            withdrawal.isApprove = true;\r\n        }\r\n    }\r\n\r\n    function getWithdrawal(uint _id) public payable {\r\n        //require id > 0\r\n        require(_id > 0);\r\n        Withdrawal storage withdrawal = withdrawals[_id];\r\n        Campaign storage campaign = campaigns[withdrawal.campaignId];\r\n\r\n        //require isApprove == true\r\n        require(withdrawal.isApprove == true);\r\n\r\n        //require isWithdraw == false\r\n        require(withdrawal.isWithdraw == false);\r\n\r\n        //update iswithdrawal\r\n        withdrawal.isWithdraw = true;\r\n\r\n        //transfer coins\r\n        campaign.owner.transfer(msg.value);\r\n\r\n        //update balance\r\n        campaign.balance = campaign.balance - msg.value;\r\n    }\r\n\r\n    /*function purchaseProduct(uint _id) public payable {\r\n        //fetch the productCount\r\n        Product memory _product = products[_id];\r\n\r\n        //fetch the owner\r\n        address payable _seller = _product.owner;\r\n        \r\n        //make sure the product has a valid id\r\n        require(_product.id > 0 && _product.id <= productCount);\r\n\r\n        //require that there is enough Ether in the transaction\r\n        require(msg.value >= _product.price);\r\n\r\n        //require that the product has not been purchase already\r\n        require(!_product.purchased);\r\n\r\n        //require that the buyer is not the seller\r\n        require(_seller != msg.sender);\r\n\r\n        //tranfer ownership to the buyer\r\n        _product.owner = msg.sender;\r\n\r\n        //mark as purchased\r\n        _product.purchased = true;\r\n\r\n        //Update the product\r\n        products[_id] = _product;\r\n\r\n        //pay the seller by sending them Ether\r\n        address(_seller).transfer(msg.value);\r\n\r\n        //trigger an event\r\n        emit ProductPurchased(productCount, _product.name, _product.price, msg.sender, true);\r\n    }*/\r\n}",
  "sourcePath": "D:/workspace/blockchain/charity/src/contracts/Charity.sol",
  "compiler": {
    "name": "solc",
    "version": "0.5.0+commit.1d4f565a.Emscripten.clang"
  },
  "schemaVersion": "3.0.2",
  "updatedAt": "2022-04-13T12:56:03.660Z",
  "devdoc": {
    "methods": {}
  },
  "userdoc": {
    "methods": {}
  }
}